{
  "contractName": "Counter",
  "abi": [
    {
      "constant": true,
      "inputs": [],
      "name": "count",
      "outputs": [
        {
          "name": "",
          "type": "uint256"
        }
      ],
      "payable": false,
      "stateMutability": "view",
      "type": "function"
    },
    {
      "inputs": [],
      "payable": false,
      "stateMutability": "nonpayable",
      "type": "constructor"
    },
    {
      "constant": false,
      "inputs": [],
      "name": "increase",
      "outputs": [],
      "payable": false,
      "stateMutability": "nonpayable",
      "type": "function"
    },
    {
      "constant": false,
      "inputs": [],
      "name": "decrease",
      "outputs": [],
      "payable": false,
      "stateMutability": "nonpayable",
      "type": "function"
    }
  ],
  "bytecode": "0x608060405234801561001057600080fd5b5060008081905550610100806100276000396000f3006080604052600436106053576000357c0100000000000000000000000000000000000000000000000000000000900463ffffffff16806306661abd146058578063d732d955146080578063e8927fbc146094575b600080fd5b348015606357600080fd5b50606a60a8565b6040518082815260200191505060405180910390f35b348015608b57600080fd5b50609260ae565b005b348015609f57600080fd5b5060a660c1565b005b60005481565b6000808154809291906001019190505550565b60008081548092919060010191905055505600a165627a7a72305820cbad5318472cd53f8aed42544ddb12797392104e1725e72db4eabde6cdd271bd0029",
  "source": "pragma solidity ^0.4.23;\n\ncontract Counter {\n    uint256 public count;\n\n    constructor() public {\n        count = 0;\n    }\n\n    function increase() public {\n        count++;\n    }\n\n    function decrease() public {\n        count++;\n    }\n}",
  "sourcePath": "/Users/raymondyeh/Desktop/rewards/contracts/Counter.sol",
  "compiler": {
    "name": "solc",
    "version": "0.4.24+commit.e67f0147.Emscripten.clang"
  },
  "schemaVersion": "2.0.1",
  "updatedAt": "2018-11-13T04:55:13.888Z"
}